{
	"Cyfrin/FundMe/FundMe.sol": {
		"FundMe": {
			"abi": [
				{
					"inputs": [
						{
							"internalType": "address",
							"name": "funder",
							"type": "address"
						}
					],
					"name": "addresToAmountFunded",
					"outputs": [
						{
							"internalType": "uint256",
							"name": "amountFunded",
							"type": "uint256"
						}
					],
					"stateMutability": "view",
					"type": "function"
				},
				{
					"inputs": [],
					"name": "fund",
					"outputs": [],
					"stateMutability": "payable",
					"type": "function"
				},
				{
					"inputs": [
						{
							"internalType": "uint256",
							"name": "",
							"type": "uint256"
						}
					],
					"name": "funders",
					"outputs": [
						{
							"internalType": "address",
							"name": "",
							"type": "address"
						}
					],
					"stateMutability": "view",
					"type": "function"
				},
				{
					"inputs": [
						{
							"internalType": "uint256",
							"name": "ethAmount",
							"type": "uint256"
						}
					],
					"name": "getConversionRate",
					"outputs": [
						{
							"internalType": "uint256",
							"name": "",
							"type": "uint256"
						}
					],
					"stateMutability": "view",
					"type": "function"
				},
				{
					"inputs": [],
					"name": "getPrice",
					"outputs": [
						{
							"internalType": "uint256",
							"name": "",
							"type": "uint256"
						}
					],
					"stateMutability": "view",
					"type": "function"
				},
				{
					"inputs": [],
					"name": "minimumUsd",
					"outputs": [
						{
							"internalType": "uint256",
							"name": "",
							"type": "uint256"
						}
					],
					"stateMutability": "view",
					"type": "function"
				},
				{
					"inputs": [],
					"name": "withdraw",
					"outputs": [],
					"stateMutability": "nonpayable",
					"type": "function"
				}
			],
			"devdoc": {
				"kind": "dev",
				"methods": {},
				"version": 1
			},
			"evm": {
				"assembly": "    /* \"Cyfrin/FundMe/FundMe.sol\":263:1778  contract FundMe {... */\n  mstore(0x40, 0x80)\n    /* \"Cyfrin/FundMe/FundMe.sol\":316:324  5 * 1e18 */\n  0x4563918244f40000\n    /* \"Cyfrin/FundMe/FundMe.sol\":288:324  uint256 public minimumUsd = 5 * 1e18 */\n  0x00\n  sstore\n    /* \"Cyfrin/FundMe/FundMe.sol\":263:1778  contract FundMe {... */\n  callvalue\n  dup1\n  iszero\n  tag_1\n  jumpi\n  0x00\n  dup1\n  revert\ntag_1:\n  pop\n  dataSize(sub_0)\n  dup1\n  dataOffset(sub_0)\n  0x00\n  codecopy\n  0x00\n  return\nstop\n\nsub_0: assembly {\n        /* \"Cyfrin/FundMe/FundMe.sol\":263:1778  contract FundMe {... */\n      mstore(0x40, 0x80)\n      jumpi(tag_1, lt(calldatasize, 0x04))\n      shr(0xe0, calldataload(0x00))\n      dup1\n      0x8b1c5758\n      gt\n      tag_9\n      jumpi\n      dup1\n      0x8b1c5758\n      eq\n      tag_5\n      jumpi\n      dup1\n      0x98d5fdca\n      eq\n      tag_6\n      jumpi\n      dup1\n      0xb60d4288\n      eq\n      tag_7\n      jumpi\n      dup1\n      0xdc0d3dff\n      eq\n      tag_8\n      jumpi\n      jump(tag_1)\n    tag_9:\n      dup1\n      0x098de820\n      eq\n      tag_2\n      jumpi\n      dup1\n      0x3ccfd60b\n      eq\n      tag_3\n      jumpi\n      dup1\n      0x6e5b6b28\n      eq\n      tag_4\n      jumpi\n    tag_1:\n      0x00\n      dup1\n      revert\n        /* \"Cyfrin/FundMe/FundMe.sol\":288:324  uint256 public minimumUsd = 5 * 1e18 */\n    tag_2:\n      callvalue\n      dup1\n      iszero\n      tag_10\n      jumpi\n      0x00\n      dup1\n      revert\n    tag_10:\n      pop\n      tag_11\n      tag_12\n      jump\t// in\n    tag_11:\n      mload(0x40)\n      tag_13\n      swap2\n      swap1\n      tag_14\n      jump\t// in\n    tag_13:\n      mload(0x40)\n      dup1\n      swap2\n      sub\n      swap1\n      return\n        /* \"Cyfrin/FundMe/FundMe.sol\":1738:1775  function withdraw() public {... */\n    tag_3:\n      callvalue\n      dup1\n      iszero\n      tag_15\n      jumpi\n      0x00\n      dup1\n      revert\n    tag_15:\n      pop\n      tag_16\n      tag_17\n      jump\t// in\n    tag_16:\n      stop\n        /* \"Cyfrin/FundMe/FundMe.sol\":1462:1730  function getConversionRate(uint256 ethAmount) public view returns(uint256) {... */\n    tag_4:\n      callvalue\n      dup1\n      iszero\n      tag_18\n      jumpi\n      0x00\n      dup1\n      revert\n    tag_18:\n      pop\n      tag_19\n      0x04\n      dup1\n      calldatasize\n      sub\n      dup2\n      add\n      swap1\n      tag_20\n      swap2\n      swap1\n      tag_21\n      jump\t// in\n    tag_20:\n      tag_22\n      jump\t// in\n    tag_19:\n      mload(0x40)\n      tag_23\n      swap2\n      swap1\n      tag_14\n      jump\t// in\n    tag_23:\n      mload(0x40)\n      dup1\n      swap2\n      sub\n      swap1\n      return\n        /* \"Cyfrin/FundMe/FundMe.sol\":433:508  mapping(address funder => uint256 amountFunded) public addresToAmountFunded */\n    tag_5:\n      callvalue\n      dup1\n      iszero\n      tag_24\n      jumpi\n      0x00\n      dup1\n      revert\n    tag_24:\n      pop\n      tag_25\n      0x04\n      dup1\n      calldatasize\n      sub\n      dup2\n      add\n      swap1\n      tag_26\n      swap2\n      swap1\n      tag_27\n      jump\t// in\n    tag_26:\n      tag_28\n      jump\t// in\n    tag_25:\n      mload(0x40)\n      tag_29\n      swap2\n      swap1\n      tag_14\n      jump\t// in\n    tag_29:\n      mload(0x40)\n      dup1\n      swap2\n      sub\n      swap1\n      return\n        /* \"Cyfrin/FundMe/FundMe.sol\":964:1454  function getPrice() public view returns (uint256) {... */\n    tag_6:\n      callvalue\n      dup1\n      iszero\n      tag_30\n      jumpi\n      0x00\n      dup1\n      revert\n    tag_30:\n      pop\n      tag_31\n      tag_32\n      jump\t// in\n    tag_31:\n      mload(0x40)\n      tag_33\n      swap2\n      swap1\n      tag_14\n      jump\t// in\n    tag_33:\n      mload(0x40)\n      dup1\n      swap2\n      sub\n      swap1\n      return\n        /* \"Cyfrin/FundMe/FundMe.sol\":542:956  function fund() public payable { //allows you to send guap... */\n    tag_7:\n      tag_34\n      tag_35\n      jump\t// in\n    tag_34:\n      stop\n        /* \"Cyfrin/FundMe/FundMe.sol\":376:400  address[] public funders */\n    tag_8:\n      callvalue\n      dup1\n      iszero\n      tag_36\n      jumpi\n      0x00\n      dup1\n      revert\n    tag_36:\n      pop\n      tag_37\n      0x04\n      dup1\n      calldatasize\n      sub\n      dup2\n      add\n      swap1\n      tag_38\n      swap2\n      swap1\n      tag_21\n      jump\t// in\n    tag_38:\n      tag_39\n      jump\t// in\n    tag_37:\n      mload(0x40)\n      tag_40\n      swap2\n      swap1\n      tag_41\n      jump\t// in\n    tag_40:\n      mload(0x40)\n      dup1\n      swap2\n      sub\n      swap1\n      return\n        /* \"Cyfrin/FundMe/FundMe.sol\":288:324  uint256 public minimumUsd = 5 * 1e18 */\n    tag_12:\n      sload(0x00)\n      dup2\n      jump\t// out\n        /* \"Cyfrin/FundMe/FundMe.sol\":1738:1775  function withdraw() public {... */\n    tag_17:\n      jump\t// out\n        /* \"Cyfrin/FundMe/FundMe.sol\":1462:1730  function getConversionRate(uint256 ethAmount) public view returns(uint256) {... */\n    tag_22:\n        /* \"Cyfrin/FundMe/FundMe.sol\":1528:1535  uint256 */\n      0x00\n        /* \"Cyfrin/FundMe/FundMe.sol\":1548:1564  uint256 ethPrice */\n      dup1\n        /* \"Cyfrin/FundMe/FundMe.sol\":1567:1577  getPrice() */\n      tag_44\n        /* \"Cyfrin/FundMe/FundMe.sol\":1567:1575  getPrice */\n      tag_32\n        /* \"Cyfrin/FundMe/FundMe.sol\":1567:1577  getPrice() */\n      jump\t// in\n    tag_44:\n        /* \"Cyfrin/FundMe/FundMe.sol\":1548:1577  uint256 ethPrice = getPrice() */\n      swap1\n      pop\n        /* \"Cyfrin/FundMe/FundMe.sol\":1588:1610  uint256 ethAmountInUsd */\n      0x00\n        /* \"Cyfrin/FundMe/FundMe.sol\":1638:1642  1e18 */\n      0x0de0b6b3a7640000\n        /* \"Cyfrin/FundMe/FundMe.sol\":1625:1634  ethAmount */\n      dup5\n        /* \"Cyfrin/FundMe/FundMe.sol\":1614:1622  ethPrice */\n      dup4\n        /* \"Cyfrin/FundMe/FundMe.sol\":1614:1634  ethPrice * ethAmount */\n      tag_45\n      swap2\n      swap1\n      tag_46\n      jump\t// in\n    tag_45:\n        /* \"Cyfrin/FundMe/FundMe.sol\":1613:1642  (ethPrice * ethAmount) / 1e18 */\n      tag_47\n      swap2\n      swap1\n      tag_48\n      jump\t// in\n    tag_47:\n        /* \"Cyfrin/FundMe/FundMe.sol\":1588:1642  uint256 ethAmountInUsd = (ethPrice * ethAmount) / 1e18 */\n      swap1\n      pop\n        /* \"Cyfrin/FundMe/FundMe.sol\":1708:1722  ethAmountInUsd */\n      dup1\n        /* \"Cyfrin/FundMe/FundMe.sol\":1701:1722  return ethAmountInUsd */\n      swap3\n      pop\n      pop\n      pop\n        /* \"Cyfrin/FundMe/FundMe.sol\":1462:1730  function getConversionRate(uint256 ethAmount) public view returns(uint256) {... */\n      swap2\n      swap1\n      pop\n      jump\t// out\n        /* \"Cyfrin/FundMe/FundMe.sol\":433:508  mapping(address funder => uint256 amountFunded) public addresToAmountFunded */\n    tag_28:\n      mstore(0x20, 0x03)\n      dup1\n      0x00\n      mstore\n      keccak256(0x00, 0x40)\n      0x00\n      swap2\n      pop\n      swap1\n      pop\n      sload\n      dup2\n      jump\t// out\n        /* \"Cyfrin/FundMe/FundMe.sol\":964:1454  function getPrice() public view returns (uint256) {... */\n    tag_32:\n        /* \"Cyfrin/FundMe/FundMe.sol\":1005:1012  uint256 */\n      0x00\n        /* \"Cyfrin/FundMe/FundMe.sol\":1211:1224  int256 answer */\n      dup1\n        /* \"Cyfrin/FundMe/FundMe.sol\":1351:1359  dataFeed */\n      0x01\n      0x00\n      swap1\n      sload\n      swap1\n      0x0100\n      exp\n      swap1\n      div\n      0xffffffffffffffffffffffffffffffffffffffff\n      and\n        /* \"Cyfrin/FundMe/FundMe.sol\":1351:1375  dataFeed.latestRoundData */\n      0xffffffffffffffffffffffffffffffffffffffff\n      and\n      0xfeaf968c\n        /* \"Cyfrin/FundMe/FundMe.sol\":1351:1377  dataFeed.latestRoundData() */\n      mload(0x40)\n      dup2\n      0xffffffff\n      and\n      0xe0\n      shl\n      dup2\n      mstore\n      0x04\n      add\n      0xa0\n      mload(0x40)\n      dup1\n      dup4\n      sub\n      dup2\n      dup7\n      gas\n      staticcall\n      iszero\n      dup1\n      iszero\n      tag_51\n      jumpi\n      returndatasize\n      0x00\n      dup1\n      returndatacopy\n      revert(0x00, returndatasize)\n    tag_51:\n      pop\n      pop\n      pop\n      pop\n      mload(0x40)\n      returndatasize\n      not(0x1f)\n      0x1f\n      dup3\n      add\n      and\n      dup3\n      add\n      dup1\n      0x40\n      mstore\n      pop\n      dup2\n      add\n      swap1\n      tag_52\n      swap2\n      swap1\n      tag_53\n      jump\t// in\n    tag_52:\n        /* \"Cyfrin/FundMe/FundMe.sol\":1161:1377  (... */\n      pop\n      pop\n      pop\n      swap2\n      pop\n      pop\n        /* \"Cyfrin/FundMe/FundMe.sol\":1413:1417  1e10 */\n      0x02540be400\n        /* \"Cyfrin/FundMe/FundMe.sol\":1403:1409  answer */\n      dup2\n        /* \"Cyfrin/FundMe/FundMe.sol\":1395:1417  uint256(answer) * 1e10 */\n      tag_54\n      swap2\n      swap1\n      tag_46\n      jump\t// in\n    tag_54:\n        /* \"Cyfrin/FundMe/FundMe.sol\":1388:1417  return uint256(answer) * 1e10 */\n      swap2\n      pop\n      pop\n        /* \"Cyfrin/FundMe/FundMe.sol\":964:1454  function getPrice() public view returns (uint256) {... */\n      swap1\n      jump\t// out\n        /* \"Cyfrin/FundMe/FundMe.sol\":542:956  function fund() public payable { //allows you to send guap... */\n    tag_35:\n        /* \"Cyfrin/FundMe/FundMe.sol\":722:732  minimumUsd */\n      sload(0x00)\n        /* \"Cyfrin/FundMe/FundMe.sol\":690:718  getConversionRate(msg.value) */\n      tag_56\n        /* \"Cyfrin/FundMe/FundMe.sol\":708:717  msg.value */\n      callvalue\n        /* \"Cyfrin/FundMe/FundMe.sol\":690:707  getConversionRate */\n      tag_22\n        /* \"Cyfrin/FundMe/FundMe.sol\":690:718  getConversionRate(msg.value) */\n      jump\t// in\n    tag_56:\n        /* \"Cyfrin/FundMe/FundMe.sol\":690:732  getConversionRate(msg.value) >= minimumUsd */\n      lt\n      iszero\n        /* \"Cyfrin/FundMe/FundMe.sol\":682:747  require(getConversionRate(msg.value) >= minimumUsd, \"not enough\") */\n      tag_57\n      jumpi\n      mload(0x40)\n      0x08c379a000000000000000000000000000000000000000000000000000000000\n      dup2\n      mstore\n      0x04\n      add\n      tag_58\n      swap1\n      tag_59\n      jump\t// in\n    tag_58:\n      mload(0x40)\n      dup1\n      swap2\n      sub\n      swap1\n      revert\n    tag_57:\n        /* \"Cyfrin/FundMe/FundMe.sol\":768:775  funders */\n      0x02\n        /* \"Cyfrin/FundMe/FundMe.sol\":781:791  msg.sender */\n      caller\n        /* \"Cyfrin/FundMe/FundMe.sol\":768:792  funders.push(msg.sender) */\n      swap1\n      dup1\n      0x01\n      dup2\n      sload\n      add\n      dup1\n      dup3\n      sstore\n      dup1\n      swap2\n      pop\n      pop\n      0x01\n      swap1\n      sub\n      swap1\n      0x00\n      mstore\n      keccak256(0x00, 0x20)\n      add\n      0x00\n      swap1\n      swap2\n      swap1\n      swap2\n      swap1\n      swap2\n      0x0100\n      exp\n      dup2\n      sload\n      dup2\n      0xffffffffffffffffffffffffffffffffffffffff\n      mul\n      not\n      and\n      swap1\n      dup4\n      0xffffffffffffffffffffffffffffffffffffffff\n      and\n      mul\n      or\n      swap1\n      sstore\n      pop\n        /* \"Cyfrin/FundMe/FundMe.sol\":886:895  msg.value */\n      callvalue\n        /* \"Cyfrin/FundMe/FundMe.sol\":851:871  addresToAmountFunded */\n      0x03\n        /* \"Cyfrin/FundMe/FundMe.sol\":851:883  addresToAmountFunded[msg.sender] */\n      0x00\n        /* \"Cyfrin/FundMe/FundMe.sol\":872:882  msg.sender */\n      caller\n        /* \"Cyfrin/FundMe/FundMe.sol\":851:883  addresToAmountFunded[msg.sender] */\n      0xffffffffffffffffffffffffffffffffffffffff\n      and\n      0xffffffffffffffffffffffffffffffffffffffff\n      and\n      dup2\n      mstore\n      0x20\n      add\n      swap1\n      dup2\n      mstore\n      0x20\n      add\n      0x00\n      keccak256\n      sload\n        /* \"Cyfrin/FundMe/FundMe.sol\":851:895  addresToAmountFunded[msg.sender] + msg.value */\n      tag_61\n      swap2\n      swap1\n      tag_62\n      jump\t// in\n    tag_61:\n        /* \"Cyfrin/FundMe/FundMe.sol\":816:836  addresToAmountFunded */\n      0x03\n        /* \"Cyfrin/FundMe/FundMe.sol\":816:848  addresToAmountFunded[msg.sender] */\n      0x00\n        /* \"Cyfrin/FundMe/FundMe.sol\":837:847  msg.sender */\n      caller\n        /* \"Cyfrin/FundMe/FundMe.sol\":816:848  addresToAmountFunded[msg.sender] */\n      0xffffffffffffffffffffffffffffffffffffffff\n      and\n      0xffffffffffffffffffffffffffffffffffffffff\n      and\n      dup2\n      mstore\n      0x20\n      add\n      swap1\n      dup2\n      mstore\n      0x20\n      add\n      0x00\n      keccak256\n        /* \"Cyfrin/FundMe/FundMe.sol\":816:895  addresToAmountFunded[msg.sender] = addresToAmountFunded[msg.sender] + msg.value */\n      dup2\n      swap1\n      sstore\n      pop\n        /* \"Cyfrin/FundMe/FundMe.sol\":542:956  function fund() public payable { //allows you to send guap... */\n      jump\t// out\n        /* \"Cyfrin/FundMe/FundMe.sol\":376:400  address[] public funders */\n    tag_39:\n      0x02\n      dup2\n      dup2\n      sload\n      dup2\n      lt\n      tag_63\n      jumpi\n      0x00\n      dup1\n      revert\n    tag_63:\n      swap1\n      0x00\n      mstore\n      keccak256(0x00, 0x20)\n      add\n      0x00\n      swap2\n      pop\n      sload\n      swap1\n      0x0100\n      exp\n      swap1\n      div\n      0xffffffffffffffffffffffffffffffffffffffff\n      and\n      dup2\n      jump\t// out\n        /* \"#utility.yul\":7:84   */\n    tag_65:\n        /* \"#utility.yul\":44:51   */\n      0x00\n        /* \"#utility.yul\":73:78   */\n      dup2\n        /* \"#utility.yul\":62:78   */\n      swap1\n      pop\n        /* \"#utility.yul\":7:84   */\n      swap2\n      swap1\n      pop\n      jump\t// out\n        /* \"#utility.yul\":90:208   */\n    tag_66:\n        /* \"#utility.yul\":177:201   */\n      tag_92\n        /* \"#utility.yul\":195:200   */\n      dup2\n        /* \"#utility.yul\":177:201   */\n      tag_65\n      jump\t// in\n    tag_92:\n        /* \"#utility.yul\":172:175   */\n      dup3\n        /* \"#utility.yul\":165:202   */\n      mstore\n        /* \"#utility.yul\":90:208   */\n      pop\n      pop\n      jump\t// out\n        /* \"#utility.yul\":214:436   */\n    tag_14:\n        /* \"#utility.yul\":307:311   */\n      0x00\n        /* \"#utility.yul\":345:347   */\n      0x20\n        /* \"#utility.yul\":334:343   */\n      dup3\n        /* \"#utility.yul\":330:348   */\n      add\n        /* \"#utility.yul\":322:348   */\n      swap1\n      pop\n        /* \"#utility.yul\":358:429   */\n      tag_94\n        /* \"#utility.yul\":426:427   */\n      0x00\n        /* \"#utility.yul\":415:424   */\n      dup4\n        /* \"#utility.yul\":411:428   */\n      add\n        /* \"#utility.yul\":402:408   */\n      dup5\n        /* \"#utility.yul\":358:429   */\n      tag_66\n      jump\t// in\n    tag_94:\n        /* \"#utility.yul\":214:436   */\n      swap3\n      swap2\n      pop\n      pop\n      jump\t// out\n        /* \"#utility.yul\":523:640   */\n    tag_68:\n        /* \"#utility.yul\":632:633   */\n      0x00\n        /* \"#utility.yul\":629:630   */\n      dup1\n        /* \"#utility.yul\":622:634   */\n      revert\n        /* \"#utility.yul\":769:891   */\n    tag_70:\n        /* \"#utility.yul\":842:866   */\n      tag_99\n        /* \"#utility.yul\":860:865   */\n      dup2\n        /* \"#utility.yul\":842:866   */\n      tag_65\n      jump\t// in\n    tag_99:\n        /* \"#utility.yul\":835:840   */\n      dup2\n        /* \"#utility.yul\":832:867   */\n      eq\n        /* \"#utility.yul\":822:885   */\n      tag_100\n      jumpi\n        /* \"#utility.yul\":881:882   */\n      0x00\n        /* \"#utility.yul\":878:879   */\n      dup1\n        /* \"#utility.yul\":871:883   */\n      revert\n        /* \"#utility.yul\":822:885   */\n    tag_100:\n        /* \"#utility.yul\":769:891   */\n      pop\n      jump\t// out\n        /* \"#utility.yul\":897:1036   */\n    tag_71:\n        /* \"#utility.yul\":943:948   */\n      0x00\n        /* \"#utility.yul\":981:987   */\n      dup2\n        /* \"#utility.yul\":968:988   */\n      calldataload\n        /* \"#utility.yul\":959:988   */\n      swap1\n      pop\n        /* \"#utility.yul\":997:1030   */\n      tag_102\n        /* \"#utility.yul\":1024:1029   */\n      dup2\n        /* \"#utility.yul\":997:1030   */\n      tag_70\n      jump\t// in\n    tag_102:\n        /* \"#utility.yul\":897:1036   */\n      swap3\n      swap2\n      pop\n      pop\n      jump\t// out\n        /* \"#utility.yul\":1042:1371   */\n    tag_21:\n        /* \"#utility.yul\":1101:1107   */\n      0x00\n        /* \"#utility.yul\":1150:1152   */\n      0x20\n        /* \"#utility.yul\":1138:1147   */\n      dup3\n        /* \"#utility.yul\":1129:1136   */\n      dup5\n        /* \"#utility.yul\":1125:1148   */\n      sub\n        /* \"#utility.yul\":1121:1153   */\n      slt\n        /* \"#utility.yul\":1118:1237   */\n      iszero\n      tag_104\n      jumpi\n        /* \"#utility.yul\":1156:1235   */\n      tag_105\n      tag_68\n      jump\t// in\n    tag_105:\n        /* \"#utility.yul\":1118:1237   */\n    tag_104:\n        /* \"#utility.yul\":1276:1277   */\n      0x00\n        /* \"#utility.yul\":1301:1354   */\n      tag_106\n        /* \"#utility.yul\":1346:1353   */\n      dup5\n        /* \"#utility.yul\":1337:1343   */\n      dup3\n        /* \"#utility.yul\":1326:1335   */\n      dup6\n        /* \"#utility.yul\":1322:1344   */\n      add\n        /* \"#utility.yul\":1301:1354   */\n      tag_71\n      jump\t// in\n    tag_106:\n        /* \"#utility.yul\":1291:1354   */\n      swap2\n      pop\n        /* \"#utility.yul\":1247:1364   */\n      pop\n        /* \"#utility.yul\":1042:1371   */\n      swap3\n      swap2\n      pop\n      pop\n      jump\t// out\n        /* \"#utility.yul\":1377:1503   */\n    tag_72:\n        /* \"#utility.yul\":1414:1421   */\n      0x00\n        /* \"#utility.yul\":1454:1496   */\n      0xffffffffffffffffffffffffffffffffffffffff\n        /* \"#utility.yul\":1447:1452   */\n      dup3\n        /* \"#utility.yul\":1443:1497   */\n      and\n        /* \"#utility.yul\":1432:1497   */\n      swap1\n      pop\n        /* \"#utility.yul\":1377:1503   */\n      swap2\n      swap1\n      pop\n      jump\t// out\n        /* \"#utility.yul\":1509:1605   */\n    tag_73:\n        /* \"#utility.yul\":1546:1553   */\n      0x00\n        /* \"#utility.yul\":1575:1599   */\n      tag_109\n        /* \"#utility.yul\":1593:1598   */\n      dup3\n        /* \"#utility.yul\":1575:1599   */\n      tag_72\n      jump\t// in\n    tag_109:\n        /* \"#utility.yul\":1564:1599   */\n      swap1\n      pop\n        /* \"#utility.yul\":1509:1605   */\n      swap2\n      swap1\n      pop\n      jump\t// out\n        /* \"#utility.yul\":1611:1733   */\n    tag_74:\n        /* \"#utility.yul\":1684:1708   */\n      tag_111\n        /* \"#utility.yul\":1702:1707   */\n      dup2\n        /* \"#utility.yul\":1684:1708   */\n      tag_73\n      jump\t// in\n    tag_111:\n        /* \"#utility.yul\":1677:1682   */\n      dup2\n        /* \"#utility.yul\":1674:1709   */\n      eq\n        /* \"#utility.yul\":1664:1727   */\n      tag_112\n      jumpi\n        /* \"#utility.yul\":1723:1724   */\n      0x00\n        /* \"#utility.yul\":1720:1721   */\n      dup1\n        /* \"#utility.yul\":1713:1725   */\n      revert\n        /* \"#utility.yul\":1664:1727   */\n    tag_112:\n        /* \"#utility.yul\":1611:1733   */\n      pop\n      jump\t// out\n        /* \"#utility.yul\":1739:1878   */\n    tag_75:\n        /* \"#utility.yul\":1785:1790   */\n      0x00\n        /* \"#utility.yul\":1823:1829   */\n      dup2\n        /* \"#utility.yul\":1810:1830   */\n      calldataload\n        /* \"#utility.yul\":1801:1830   */\n      swap1\n      pop\n        /* \"#utility.yul\":1839:1872   */\n      tag_114\n        /* \"#utility.yul\":1866:1871   */\n      dup2\n        /* \"#utility.yul\":1839:1872   */\n      tag_74\n      jump\t// in\n    tag_114:\n        /* \"#utility.yul\":1739:1878   */\n      swap3\n      swap2\n      pop\n      pop\n      jump\t// out\n        /* \"#utility.yul\":1884:2213   */\n    tag_27:\n        /* \"#utility.yul\":1943:1949   */\n      0x00\n        /* \"#utility.yul\":1992:1994   */\n      0x20\n        /* \"#utility.yul\":1980:1989   */\n      dup3\n        /* \"#utility.yul\":1971:1978   */\n      dup5\n        /* \"#utility.yul\":1967:1990   */\n      sub\n        /* \"#utility.yul\":1963:1995   */\n      slt\n        /* \"#utility.yul\":1960:2079   */\n      iszero\n      tag_116\n      jumpi\n        /* \"#utility.yul\":1998:2077   */\n      tag_117\n      tag_68\n      jump\t// in\n    tag_117:\n        /* \"#utility.yul\":1960:2079   */\n    tag_116:\n        /* \"#utility.yul\":2118:2119   */\n      0x00\n        /* \"#utility.yul\":2143:2196   */\n      tag_118\n        /* \"#utility.yul\":2188:2195   */\n      dup5\n        /* \"#utility.yul\":2179:2185   */\n      dup3\n        /* \"#utility.yul\":2168:2177   */\n      dup6\n        /* \"#utility.yul\":2164:2186   */\n      add\n        /* \"#utility.yul\":2143:2196   */\n      tag_75\n      jump\t// in\n    tag_118:\n        /* \"#utility.yul\":2133:2196   */\n      swap2\n      pop\n        /* \"#utility.yul\":2089:2206   */\n      pop\n        /* \"#utility.yul\":1884:2213   */\n      swap3\n      swap2\n      pop\n      pop\n      jump\t// out\n        /* \"#utility.yul\":2219:2337   */\n    tag_76:\n        /* \"#utility.yul\":2306:2330   */\n      tag_120\n        /* \"#utility.yul\":2324:2329   */\n      dup2\n        /* \"#utility.yul\":2306:2330   */\n      tag_73\n      jump\t// in\n    tag_120:\n        /* \"#utility.yul\":2301:2304   */\n      dup3\n        /* \"#utility.yul\":2294:2331   */\n      mstore\n        /* \"#utility.yul\":2219:2337   */\n      pop\n      pop\n      jump\t// out\n        /* \"#utility.yul\":2343:2565   */\n    tag_41:\n        /* \"#utility.yul\":2436:2440   */\n      0x00\n        /* \"#utility.yul\":2474:2476   */\n      0x20\n        /* \"#utility.yul\":2463:2472   */\n      dup3\n        /* \"#utility.yul\":2459:2477   */\n      add\n        /* \"#utility.yul\":2451:2477   */\n      swap1\n      pop\n        /* \"#utility.yul\":2487:2558   */\n      tag_122\n        /* \"#utility.yul\":2555:2556   */\n      0x00\n        /* \"#utility.yul\":2544:2553   */\n      dup4\n        /* \"#utility.yul\":2540:2557   */\n      add\n        /* \"#utility.yul\":2531:2537   */\n      dup5\n        /* \"#utility.yul\":2487:2558   */\n      tag_76\n      jump\t// in\n    tag_122:\n        /* \"#utility.yul\":2343:2565   */\n      swap3\n      swap2\n      pop\n      pop\n      jump\t// out\n        /* \"#utility.yul\":2571:2751   */\n    tag_77:\n        /* \"#utility.yul\":2619:2696   */\n      0x4e487b7100000000000000000000000000000000000000000000000000000000\n        /* \"#utility.yul\":2616:2617   */\n      0x00\n        /* \"#utility.yul\":2609:2697   */\n      mstore\n        /* \"#utility.yul\":2716:2720   */\n      0x11\n        /* \"#utility.yul\":2713:2714   */\n      0x04\n        /* \"#utility.yul\":2706:2721   */\n      mstore\n        /* \"#utility.yul\":2740:2744   */\n      0x24\n        /* \"#utility.yul\":2737:2738   */\n      0x00\n        /* \"#utility.yul\":2730:2745   */\n      revert\n        /* \"#utility.yul\":2757:3167   */\n    tag_46:\n        /* \"#utility.yul\":2797:2804   */\n      0x00\n        /* \"#utility.yul\":2820:2840   */\n      tag_125\n        /* \"#utility.yul\":2838:2839   */\n      dup3\n        /* \"#utility.yul\":2820:2840   */\n      tag_65\n      jump\t// in\n    tag_125:\n        /* \"#utility.yul\":2815:2840   */\n      swap2\n      pop\n        /* \"#utility.yul\":2854:2874   */\n      tag_126\n        /* \"#utility.yul\":2872:2873   */\n      dup4\n        /* \"#utility.yul\":2854:2874   */\n      tag_65\n      jump\t// in\n    tag_126:\n        /* \"#utility.yul\":2849:2874   */\n      swap3\n      pop\n        /* \"#utility.yul\":2909:2910   */\n      dup3\n        /* \"#utility.yul\":2906:2907   */\n      dup3\n        /* \"#utility.yul\":2902:2911   */\n      mul\n        /* \"#utility.yul\":2931:2961   */\n      tag_127\n        /* \"#utility.yul\":2949:2960   */\n      dup2\n        /* \"#utility.yul\":2931:2961   */\n      tag_65\n      jump\t// in\n    tag_127:\n        /* \"#utility.yul\":2920:2961   */\n      swap2\n      pop\n        /* \"#utility.yul\":3110:3111   */\n      dup3\n        /* \"#utility.yul\":3101:3108   */\n      dup3\n        /* \"#utility.yul\":3097:3112   */\n      div\n        /* \"#utility.yul\":3094:3095   */\n      dup5\n        /* \"#utility.yul\":3091:3113   */\n      eq\n        /* \"#utility.yul\":3071:3072   */\n      dup4\n        /* \"#utility.yul\":3064:3073   */\n      iszero\n        /* \"#utility.yul\":3044:3127   */\n      or\n        /* \"#utility.yul\":3021:3160   */\n      tag_128\n      jumpi\n        /* \"#utility.yul\":3140:3158   */\n      tag_129\n      tag_77\n      jump\t// in\n    tag_129:\n        /* \"#utility.yul\":3021:3160   */\n    tag_128:\n        /* \"#utility.yul\":2805:3167   */\n      pop\n        /* \"#utility.yul\":2757:3167   */\n      swap3\n      swap2\n      pop\n      pop\n      jump\t// out\n        /* \"#utility.yul\":3173:3353   */\n    tag_78:\n        /* \"#utility.yul\":3221:3298   */\n      0x4e487b7100000000000000000000000000000000000000000000000000000000\n        /* \"#utility.yul\":3218:3219   */\n      0x00\n        /* \"#utility.yul\":3211:3299   */\n      mstore\n        /* \"#utility.yul\":3318:3322   */\n      0x12\n        /* \"#utility.yul\":3315:3316   */\n      0x04\n        /* \"#utility.yul\":3308:3323   */\n      mstore\n        /* \"#utility.yul\":3342:3346   */\n      0x24\n        /* \"#utility.yul\":3339:3340   */\n      0x00\n        /* \"#utility.yul\":3332:3347   */\n      revert\n        /* \"#utility.yul\":3359:3544   */\n    tag_48:\n        /* \"#utility.yul\":3399:3400   */\n      0x00\n        /* \"#utility.yul\":3416:3436   */\n      tag_132\n        /* \"#utility.yul\":3434:3435   */\n      dup3\n        /* \"#utility.yul\":3416:3436   */\n      tag_65\n      jump\t// in\n    tag_132:\n        /* \"#utility.yul\":3411:3436   */\n      swap2\n      pop\n        /* \"#utility.yul\":3450:3470   */\n      tag_133\n        /* \"#utility.yul\":3468:3469   */\n      dup4\n        /* \"#utility.yul\":3450:3470   */\n      tag_65\n      jump\t// in\n    tag_133:\n        /* \"#utility.yul\":3445:3470   */\n      swap3\n      pop\n        /* \"#utility.yul\":3489:3490   */\n      dup3\n        /* \"#utility.yul\":3479:3514   */\n      tag_134\n      jumpi\n        /* \"#utility.yul\":3494:3512   */\n      tag_135\n      tag_78\n      jump\t// in\n    tag_135:\n        /* \"#utility.yul\":3479:3514   */\n    tag_134:\n        /* \"#utility.yul\":3536:3537   */\n      dup3\n        /* \"#utility.yul\":3533:3534   */\n      dup3\n        /* \"#utility.yul\":3529:3538   */\n      div\n        /* \"#utility.yul\":3524:3538   */\n      swap1\n      pop\n        /* \"#utility.yul\":3359:3544   */\n      swap3\n      swap2\n      pop\n      pop\n      jump\t// out\n        /* \"#utility.yul\":3550:3655   */\n    tag_79:\n        /* \"#utility.yul\":3586:3593   */\n      0x00\n        /* \"#utility.yul\":3626:3648   */\n      0xffffffffffffffffffff\n        /* \"#utility.yul\":3619:3624   */\n      dup3\n        /* \"#utility.yul\":3615:3649   */\n      and\n        /* \"#utility.yul\":3604:3649   */\n      swap1\n      pop\n        /* \"#utility.yul\":3550:3655   */\n      swap2\n      swap1\n      pop\n      jump\t// out\n        /* \"#utility.yul\":3661:3781   */\n    tag_80:\n        /* \"#utility.yul\":3733:3756   */\n      tag_138\n        /* \"#utility.yul\":3750:3755   */\n      dup2\n        /* \"#utility.yul\":3733:3756   */\n      tag_79\n      jump\t// in\n    tag_138:\n        /* \"#utility.yul\":3726:3731   */\n      dup2\n        /* \"#utility.yul\":3723:3757   */\n      eq\n        /* \"#utility.yul\":3713:3775   */\n      tag_139\n      jumpi\n        /* \"#utility.yul\":3771:3772   */\n      0x00\n        /* \"#utility.yul\":3768:3769   */\n      dup1\n        /* \"#utility.yul\":3761:3773   */\n      revert\n        /* \"#utility.yul\":3713:3775   */\n    tag_139:\n        /* \"#utility.yul\":3661:3781   */\n      pop\n      jump\t// out\n        /* \"#utility.yul\":3787:3928   */\n    tag_81:\n        /* \"#utility.yul\":3843:3848   */\n      0x00\n        /* \"#utility.yul\":3874:3880   */\n      dup2\n        /* \"#utility.yul\":3868:3881   */\n      mload\n        /* \"#utility.yul\":3859:3881   */\n      swap1\n      pop\n        /* \"#utility.yul\":3890:3922   */\n      tag_141\n        /* \"#utility.yul\":3916:3921   */\n      dup2\n        /* \"#utility.yul\":3890:3922   */\n      tag_80\n      jump\t// in\n    tag_141:\n        /* \"#utility.yul\":3787:3928   */\n      swap3\n      swap2\n      pop\n      pop\n      jump\t// out\n        /* \"#utility.yul\":3934:4010   */\n    tag_82:\n        /* \"#utility.yul\":3970:3977   */\n      0x00\n        /* \"#utility.yul\":3999:4004   */\n      dup2\n        /* \"#utility.yul\":3988:4004   */\n      swap1\n      pop\n        /* \"#utility.yul\":3934:4010   */\n      swap2\n      swap1\n      pop\n      jump\t// out\n        /* \"#utility.yul\":4016:4136   */\n    tag_83:\n        /* \"#utility.yul\":4088:4111   */\n      tag_144\n        /* \"#utility.yul\":4105:4110   */\n      dup2\n        /* \"#utility.yul\":4088:4111   */\n      tag_82\n      jump\t// in\n    tag_144:\n        /* \"#utility.yul\":4081:4086   */\n      dup2\n        /* \"#utility.yul\":4078:4112   */\n      eq\n        /* \"#utility.yul\":4068:4130   */\n      tag_145\n      jumpi\n        /* \"#utility.yul\":4126:4127   */\n      0x00\n        /* \"#utility.yul\":4123:4124   */\n      dup1\n        /* \"#utility.yul\":4116:4128   */\n      revert\n        /* \"#utility.yul\":4068:4130   */\n    tag_145:\n        /* \"#utility.yul\":4016:4136   */\n      pop\n      jump\t// out\n        /* \"#utility.yul\":4142:4283   */\n    tag_84:\n        /* \"#utility.yul\":4198:4203   */\n      0x00\n        /* \"#utility.yul\":4229:4235   */\n      dup2\n        /* \"#utility.yul\":4223:4236   */\n      mload\n        /* \"#utility.yul\":4214:4236   */\n      swap1\n      pop\n        /* \"#utility.yul\":4245:4277   */\n      tag_147\n        /* \"#utility.yul\":4271:4276   */\n      dup2\n        /* \"#utility.yul\":4245:4277   */\n      tag_83\n      jump\t// in\n    tag_147:\n        /* \"#utility.yul\":4142:4283   */\n      swap3\n      swap2\n      pop\n      pop\n      jump\t// out\n        /* \"#utility.yul\":4289:4432   */\n    tag_85:\n        /* \"#utility.yul\":4346:4351   */\n      0x00\n        /* \"#utility.yul\":4377:4383   */\n      dup2\n        /* \"#utility.yul\":4371:4384   */\n      mload\n        /* \"#utility.yul\":4362:4384   */\n      swap1\n      pop\n        /* \"#utility.yul\":4393:4426   */\n      tag_149\n        /* \"#utility.yul\":4420:4425   */\n      dup2\n        /* \"#utility.yul\":4393:4426   */\n      tag_70\n      jump\t// in\n    tag_149:\n        /* \"#utility.yul\":4289:4432   */\n      swap3\n      swap2\n      pop\n      pop\n      jump\t// out\n        /* \"#utility.yul\":4438:5409   */\n    tag_53:\n        /* \"#utility.yul\":4541:4547   */\n      0x00\n        /* \"#utility.yul\":4549:4555   */\n      dup1\n        /* \"#utility.yul\":4557:4563   */\n      0x00\n        /* \"#utility.yul\":4565:4571   */\n      dup1\n        /* \"#utility.yul\":4573:4579   */\n      0x00\n        /* \"#utility.yul\":4622:4625   */\n      0xa0\n        /* \"#utility.yul\":4610:4619   */\n      dup7\n        /* \"#utility.yul\":4601:4608   */\n      dup9\n        /* \"#utility.yul\":4597:4620   */\n      sub\n        /* \"#utility.yul\":4593:4626   */\n      slt\n        /* \"#utility.yul\":4590:4710   */\n      iszero\n      tag_151\n      jumpi\n        /* \"#utility.yul\":4629:4708   */\n      tag_152\n      tag_68\n      jump\t// in\n    tag_152:\n        /* \"#utility.yul\":4590:4710   */\n    tag_151:\n        /* \"#utility.yul\":4749:4750   */\n      0x00\n        /* \"#utility.yul\":4774:4837   */\n      tag_153\n        /* \"#utility.yul\":4829:4836   */\n      dup9\n        /* \"#utility.yul\":4820:4826   */\n      dup3\n        /* \"#utility.yul\":4809:4818   */\n      dup10\n        /* \"#utility.yul\":4805:4827   */\n      add\n        /* \"#utility.yul\":4774:4837   */\n      tag_81\n      jump\t// in\n    tag_153:\n        /* \"#utility.yul\":4764:4837   */\n      swap6\n      pop\n        /* \"#utility.yul\":4720:4847   */\n      pop\n        /* \"#utility.yul\":4886:4888   */\n      0x20\n        /* \"#utility.yul\":4912:4975   */\n      tag_154\n        /* \"#utility.yul\":4967:4974   */\n      dup9\n        /* \"#utility.yul\":4958:4964   */\n      dup3\n        /* \"#utility.yul\":4947:4956   */\n      dup10\n        /* \"#utility.yul\":4943:4965   */\n      add\n        /* \"#utility.yul\":4912:4975   */\n      tag_84\n      jump\t// in\n    tag_154:\n        /* \"#utility.yul\":4902:4975   */\n      swap5\n      pop\n        /* \"#utility.yul\":4857:4985   */\n      pop\n        /* \"#utility.yul\":5024:5026   */\n      0x40\n        /* \"#utility.yul\":5050:5114   */\n      tag_155\n        /* \"#utility.yul\":5106:5113   */\n      dup9\n        /* \"#utility.yul\":5097:5103   */\n      dup3\n        /* \"#utility.yul\":5086:5095   */\n      dup10\n        /* \"#utility.yul\":5082:5104   */\n      add\n        /* \"#utility.yul\":5050:5114   */\n      tag_85\n      jump\t// in\n    tag_155:\n        /* \"#utility.yul\":5040:5114   */\n      swap4\n      pop\n        /* \"#utility.yul\":4995:5124   */\n      pop\n        /* \"#utility.yul\":5163:5165   */\n      0x60\n        /* \"#utility.yul\":5189:5253   */\n      tag_156\n        /* \"#utility.yul\":5245:5252   */\n      dup9\n        /* \"#utility.yul\":5236:5242   */\n      dup3\n        /* \"#utility.yul\":5225:5234   */\n      dup10\n        /* \"#utility.yul\":5221:5243   */\n      add\n        /* \"#utility.yul\":5189:5253   */\n      tag_85\n      jump\t// in\n    tag_156:\n        /* \"#utility.yul\":5179:5253   */\n      swap3\n      pop\n        /* \"#utility.yul\":5134:5263   */\n      pop\n        /* \"#utility.yul\":5302:5305   */\n      0x80\n        /* \"#utility.yul\":5329:5392   */\n      tag_157\n        /* \"#utility.yul\":5384:5391   */\n      dup9\n        /* \"#utility.yul\":5375:5381   */\n      dup3\n        /* \"#utility.yul\":5364:5373   */\n      dup10\n        /* \"#utility.yul\":5360:5382   */\n      add\n        /* \"#utility.yul\":5329:5392   */\n      tag_81\n      jump\t// in\n    tag_157:\n        /* \"#utility.yul\":5319:5392   */\n      swap2\n      pop\n        /* \"#utility.yul\":5273:5402   */\n      pop\n        /* \"#utility.yul\":4438:5409   */\n      swap3\n      swap6\n      pop\n      swap3\n      swap6\n      swap1\n      swap4\n      pop\n      jump\t// out\n        /* \"#utility.yul\":5415:5584   */\n    tag_86:\n        /* \"#utility.yul\":5499:5510   */\n      0x00\n        /* \"#utility.yul\":5533:5539   */\n      dup3\n        /* \"#utility.yul\":5528:5531   */\n      dup3\n        /* \"#utility.yul\":5521:5540   */\n      mstore\n        /* \"#utility.yul\":5573:5577   */\n      0x20\n        /* \"#utility.yul\":5568:5571   */\n      dup3\n        /* \"#utility.yul\":5564:5578   */\n      add\n        /* \"#utility.yul\":5549:5578   */\n      swap1\n      pop\n        /* \"#utility.yul\":5415:5584   */\n      swap3\n      swap2\n      pop\n      pop\n      jump\t// out\n        /* \"#utility.yul\":5590:5750   */\n    tag_87:\n        /* \"#utility.yul\":5730:5742   */\n      0x6e6f7420656e6f75676800000000000000000000000000000000000000000000\n        /* \"#utility.yul\":5726:5727   */\n      0x00\n        /* \"#utility.yul\":5718:5724   */\n      dup3\n        /* \"#utility.yul\":5714:5728   */\n      add\n        /* \"#utility.yul\":5707:5743   */\n      mstore\n        /* \"#utility.yul\":5590:5750   */\n      pop\n      jump\t// out\n        /* \"#utility.yul\":5756:6122   */\n    tag_88:\n        /* \"#utility.yul\":5898:5901   */\n      0x00\n        /* \"#utility.yul\":5919:5986   */\n      tag_161\n        /* \"#utility.yul\":5983:5985   */\n      0x0a\n        /* \"#utility.yul\":5978:5981   */\n      dup4\n        /* \"#utility.yul\":5919:5986   */\n      tag_86\n      jump\t// in\n    tag_161:\n        /* \"#utility.yul\":5912:5986   */\n      swap2\n      pop\n        /* \"#utility.yul\":5995:6088   */\n      tag_162\n        /* \"#utility.yul\":6084:6087   */\n      dup3\n        /* \"#utility.yul\":5995:6088   */\n      tag_87\n      jump\t// in\n    tag_162:\n        /* \"#utility.yul\":6113:6115   */\n      0x20\n        /* \"#utility.yul\":6108:6111   */\n      dup3\n        /* \"#utility.yul\":6104:6116   */\n      add\n        /* \"#utility.yul\":6097:6116   */\n      swap1\n      pop\n        /* \"#utility.yul\":5756:6122   */\n      swap2\n      swap1\n      pop\n      jump\t// out\n        /* \"#utility.yul\":6128:6547   */\n    tag_59:\n        /* \"#utility.yul\":6294:6298   */\n      0x00\n        /* \"#utility.yul\":6332:6334   */\n      0x20\n        /* \"#utility.yul\":6321:6330   */\n      dup3\n        /* \"#utility.yul\":6317:6335   */\n      add\n        /* \"#utility.yul\":6309:6335   */\n      swap1\n      pop\n        /* \"#utility.yul\":6381:6390   */\n      dup2\n        /* \"#utility.yul\":6375:6379   */\n      dup2\n        /* \"#utility.yul\":6371:6391   */\n      sub\n        /* \"#utility.yul\":6367:6368   */\n      0x00\n        /* \"#utility.yul\":6356:6365   */\n      dup4\n        /* \"#utility.yul\":6352:6369   */\n      add\n        /* \"#utility.yul\":6345:6392   */\n      mstore\n        /* \"#utility.yul\":6409:6540   */\n      tag_164\n        /* \"#utility.yul\":6535:6539   */\n      dup2\n        /* \"#utility.yul\":6409:6540   */\n      tag_88\n      jump\t// in\n    tag_164:\n        /* \"#utility.yul\":6401:6540   */\n      swap1\n      pop\n        /* \"#utility.yul\":6128:6547   */\n      swap2\n      swap1\n      pop\n      jump\t// out\n        /* \"#utility.yul\":6553:6744   */\n    tag_62:\n        /* \"#utility.yul\":6593:6596   */\n      0x00\n        /* \"#utility.yul\":6612:6632   */\n      tag_166\n        /* \"#utility.yul\":6630:6631   */\n      dup3\n        /* \"#utility.yul\":6612:6632   */\n      tag_65\n      jump\t// in\n    tag_166:\n        /* \"#utility.yul\":6607:6632   */\n      swap2\n      pop\n        /* \"#utility.yul\":6646:6666   */\n      tag_167\n        /* \"#utility.yul\":6664:6665   */\n      dup4\n        /* \"#utility.yul\":6646:6666   */\n      tag_65\n      jump\t// in\n    tag_167:\n        /* \"#utility.yul\":6641:6666   */\n      swap3\n      pop\n        /* \"#utility.yul\":6689:6690   */\n      dup3\n        /* \"#utility.yul\":6686:6687   */\n      dup3\n        /* \"#utility.yul\":6682:6691   */\n      add\n        /* \"#utility.yul\":6675:6691   */\n      swap1\n      pop\n        /* \"#utility.yul\":6710:6713   */\n      dup1\n        /* \"#utility.yul\":6707:6708   */\n      dup3\n        /* \"#utility.yul\":6704:6714   */\n      gt\n        /* \"#utility.yul\":6701:6737   */\n      iszero\n      tag_168\n      jumpi\n        /* \"#utility.yul\":6717:6735   */\n      tag_169\n      tag_77\n      jump\t// in\n    tag_169:\n        /* \"#utility.yul\":6701:6737   */\n    tag_168:\n        /* \"#utility.yul\":6553:6744   */\n      swap3\n      swap2\n      pop\n      pop\n      jump\t// out\n\n    auxdata: 0xa26469706673582212200ada8f7c6f8e5aca7b24a1e17e3733fea727b9c70c40c94981e5113f4aa4057b64736f6c634300081a0033\n}\n",
				"bytecode": {
					"linkReferences": {},
					"object": "6080604052674563918244f400005f553480156019575f80fd5b506107ef806100275f395ff3fe60806040526004361061006f575f3560e01c80638b1c57581161004d5780638b1c5758146100ef57806398d5fdca1461012b578063b60d428814610155578063dc0d3dff1461015f5761006f565b8063098de820146100735780633ccfd60b1461009d5780636e5b6b28146100b3575b5f80fd5b34801561007e575f80fd5b5061008761019b565b6040516100949190610427565b60405180910390f35b3480156100a8575f80fd5b506100b16101a0565b005b3480156100be575f80fd5b506100d960048036038101906100d4919061046e565b6101a2565b6040516100e69190610427565b60405180910390f35b3480156100fa575f80fd5b50610115600480360381019061011091906104f3565b6101da565b6040516101229190610427565b60405180910390f35b348015610136575f80fd5b5061013f6101ef565b60405161014c9190610427565b60405180910390f35b61015d61029c565b005b34801561016a575f80fd5b506101856004803603810190610180919061046e565b6103d4565b604051610192919061052d565b60405180910390f35b5f5481565b565b5f806101ac6101ef565b90505f670de0b6b3a764000084836101c49190610573565b6101ce91906105e1565b90508092505050919050565b6003602052805f5260405f205f915090505481565b5f8060015f9054906101000a900473ffffffffffffffffffffffffffffffffffffffff1673ffffffffffffffffffffffffffffffffffffffff1663feaf968c6040518163ffffffff1660e01b815260040160a060405180830381865afa15801561025b573d5f803e3d5ffd5b505050506040513d601f19601f8201168201806040525081019061027f9190610697565b5050509150506402540be400816102969190610573565b91505090565b5f546102a7346101a2565b10156102e8576040517f08c379a00000000000000000000000000000000000000000000000000000000081526004016102df90610768565b60405180910390fd5b600233908060018154018082558091505060019003905f5260205f20015f9091909190916101000a81548173ffffffffffffffffffffffffffffffffffffffff021916908373ffffffffffffffffffffffffffffffffffffffff1602179055503460035f3373ffffffffffffffffffffffffffffffffffffffff1673ffffffffffffffffffffffffffffffffffffffff1681526020019081526020015f20546103919190610786565b60035f3373ffffffffffffffffffffffffffffffffffffffff1673ffffffffffffffffffffffffffffffffffffffff1681526020019081526020015f2081905550565b600281815481106103e3575f80fd5b905f5260205f20015f915054906101000a900473ffffffffffffffffffffffffffffffffffffffff1681565b5f819050919050565b6104218161040f565b82525050565b5f60208201905061043a5f830184610418565b92915050565b5f80fd5b61044d8161040f565b8114610457575f80fd5b50565b5f8135905061046881610444565b92915050565b5f6020828403121561048357610482610440565b5b5f6104908482850161045a565b91505092915050565b5f73ffffffffffffffffffffffffffffffffffffffff82169050919050565b5f6104c282610499565b9050919050565b6104d2816104b8565b81146104dc575f80fd5b50565b5f813590506104ed816104c9565b92915050565b5f6020828403121561050857610507610440565b5b5f610515848285016104df565b91505092915050565b610527816104b8565b82525050565b5f6020820190506105405f83018461051e565b92915050565b7f4e487b71000000000000000000000000000000000000000000000000000000005f52601160045260245ffd5b5f61057d8261040f565b91506105888361040f565b92508282026105968161040f565b915082820484148315176105ad576105ac610546565b5b5092915050565b7f4e487b71000000000000000000000000000000000000000000000000000000005f52601260045260245ffd5b5f6105eb8261040f565b91506105f68361040f565b925082610606576106056105b4565b5b828204905092915050565b5f69ffffffffffffffffffff82169050919050565b61062f81610611565b8114610639575f80fd5b50565b5f8151905061064a81610626565b92915050565b5f819050919050565b61066281610650565b811461066c575f80fd5b50565b5f8151905061067d81610659565b92915050565b5f8151905061069181610444565b92915050565b5f805f805f60a086880312156106b0576106af610440565b5b5f6106bd8882890161063c565b95505060206106ce8882890161066f565b94505060406106df88828901610683565b93505060606106f088828901610683565b92505060806107018882890161063c565b9150509295509295909350565b5f82825260208201905092915050565b7f6e6f7420656e6f756768000000000000000000000000000000000000000000005f82015250565b5f610752600a8361070e565b915061075d8261071e565b602082019050919050565b5f6020820190508181035f83015261077f81610746565b9050919050565b5f6107908261040f565b915061079b8361040f565b92508282019050808211156107b3576107b2610546565b5b9291505056fea26469706673582212200ada8f7c6f8e5aca7b24a1e17e3733fea727b9c70c40c94981e5113f4aa4057b64736f6c634300081a0033",
					"opcodes": "PUSH1 0x80 PUSH1 0x40 MSTORE PUSH8 0x4563918244F40000 PUSH0 SSTORE CALLVALUE DUP1 ISZERO PUSH1 0x19 JUMPI PUSH0 DUP1 REVERT JUMPDEST POP PUSH2 0x7EF DUP1 PUSH2 0x27 PUSH0 CODECOPY PUSH0 RETURN INVALID PUSH1 0x80 PUSH1 0x40 MSTORE PUSH1 0x4 CALLDATASIZE LT PUSH2 0x6F JUMPI PUSH0 CALLDATALOAD PUSH1 0xE0 SHR DUP1 PUSH4 0x8B1C5758 GT PUSH2 0x4D JUMPI DUP1 PUSH4 0x8B1C5758 EQ PUSH2 0xEF JUMPI DUP1 PUSH4 0x98D5FDCA EQ PUSH2 0x12B JUMPI DUP1 PUSH4 0xB60D4288 EQ PUSH2 0x155 JUMPI DUP1 PUSH4 0xDC0D3DFF EQ PUSH2 0x15F JUMPI PUSH2 0x6F JUMP JUMPDEST DUP1 PUSH4 0x98DE820 EQ PUSH2 0x73 JUMPI DUP1 PUSH4 0x3CCFD60B EQ PUSH2 0x9D JUMPI DUP1 PUSH4 0x6E5B6B28 EQ PUSH2 0xB3 JUMPI JUMPDEST PUSH0 DUP1 REVERT JUMPDEST CALLVALUE DUP1 ISZERO PUSH2 0x7E JUMPI PUSH0 DUP1 REVERT JUMPDEST POP PUSH2 0x87 PUSH2 0x19B JUMP JUMPDEST PUSH1 0x40 MLOAD PUSH2 0x94 SWAP2 SWAP1 PUSH2 0x427 JUMP JUMPDEST PUSH1 0x40 MLOAD DUP1 SWAP2 SUB SWAP1 RETURN JUMPDEST CALLVALUE DUP1 ISZERO PUSH2 0xA8 JUMPI PUSH0 DUP1 REVERT JUMPDEST POP PUSH2 0xB1 PUSH2 0x1A0 JUMP JUMPDEST STOP JUMPDEST CALLVALUE DUP1 ISZERO PUSH2 0xBE JUMPI PUSH0 DUP1 REVERT JUMPDEST POP PUSH2 0xD9 PUSH1 0x4 DUP1 CALLDATASIZE SUB DUP2 ADD SWAP1 PUSH2 0xD4 SWAP2 SWAP1 PUSH2 0x46E JUMP JUMPDEST PUSH2 0x1A2 JUMP JUMPDEST PUSH1 0x40 MLOAD PUSH2 0xE6 SWAP2 SWAP1 PUSH2 0x427 JUMP JUMPDEST PUSH1 0x40 MLOAD DUP1 SWAP2 SUB SWAP1 RETURN JUMPDEST CALLVALUE DUP1 ISZERO PUSH2 0xFA JUMPI PUSH0 DUP1 REVERT JUMPDEST POP PUSH2 0x115 PUSH1 0x4 DUP1 CALLDATASIZE SUB DUP2 ADD SWAP1 PUSH2 0x110 SWAP2 SWAP1 PUSH2 0x4F3 JUMP JUMPDEST PUSH2 0x1DA JUMP JUMPDEST PUSH1 0x40 MLOAD PUSH2 0x122 SWAP2 SWAP1 PUSH2 0x427 JUMP JUMPDEST PUSH1 0x40 MLOAD DUP1 SWAP2 SUB SWAP1 RETURN JUMPDEST CALLVALUE DUP1 ISZERO PUSH2 0x136 JUMPI PUSH0 DUP1 REVERT JUMPDEST POP PUSH2 0x13F PUSH2 0x1EF JUMP JUMPDEST PUSH1 0x40 MLOAD PUSH2 0x14C SWAP2 SWAP1 PUSH2 0x427 JUMP JUMPDEST PUSH1 0x40 MLOAD DUP1 SWAP2 SUB SWAP1 RETURN JUMPDEST PUSH2 0x15D PUSH2 0x29C JUMP JUMPDEST STOP JUMPDEST CALLVALUE DUP1 ISZERO PUSH2 0x16A JUMPI PUSH0 DUP1 REVERT JUMPDEST POP PUSH2 0x185 PUSH1 0x4 DUP1 CALLDATASIZE SUB DUP2 ADD SWAP1 PUSH2 0x180 SWAP2 SWAP1 PUSH2 0x46E JUMP JUMPDEST PUSH2 0x3D4 JUMP JUMPDEST PUSH1 0x40 MLOAD PUSH2 0x192 SWAP2 SWAP1 PUSH2 0x52D JUMP JUMPDEST PUSH1 0x40 MLOAD DUP1 SWAP2 SUB SWAP1 RETURN JUMPDEST PUSH0 SLOAD DUP2 JUMP JUMPDEST JUMP JUMPDEST PUSH0 DUP1 PUSH2 0x1AC PUSH2 0x1EF JUMP JUMPDEST SWAP1 POP PUSH0 PUSH8 0xDE0B6B3A7640000 DUP5 DUP4 PUSH2 0x1C4 SWAP2 SWAP1 PUSH2 0x573 JUMP JUMPDEST PUSH2 0x1CE SWAP2 SWAP1 PUSH2 0x5E1 JUMP JUMPDEST SWAP1 POP DUP1 SWAP3 POP POP POP SWAP2 SWAP1 POP JUMP JUMPDEST PUSH1 0x3 PUSH1 0x20 MSTORE DUP1 PUSH0 MSTORE PUSH1 0x40 PUSH0 KECCAK256 PUSH0 SWAP2 POP SWAP1 POP SLOAD DUP2 JUMP JUMPDEST PUSH0 DUP1 PUSH1 0x1 PUSH0 SWAP1 SLOAD SWAP1 PUSH2 0x100 EXP SWAP1 DIV PUSH20 0xFFFFFFFFFFFFFFFFFFFFFFFFFFFFFFFFFFFFFFFF AND PUSH20 0xFFFFFFFFFFFFFFFFFFFFFFFFFFFFFFFFFFFFFFFF AND PUSH4 0xFEAF968C PUSH1 0x40 MLOAD DUP2 PUSH4 0xFFFFFFFF AND PUSH1 0xE0 SHL DUP2 MSTORE PUSH1 0x4 ADD PUSH1 0xA0 PUSH1 0x40 MLOAD DUP1 DUP4 SUB DUP2 DUP7 GAS STATICCALL ISZERO DUP1 ISZERO PUSH2 0x25B JUMPI RETURNDATASIZE PUSH0 DUP1 RETURNDATACOPY RETURNDATASIZE PUSH0 REVERT JUMPDEST POP POP POP POP PUSH1 0x40 MLOAD RETURNDATASIZE PUSH1 0x1F NOT PUSH1 0x1F DUP3 ADD AND DUP3 ADD DUP1 PUSH1 0x40 MSTORE POP DUP2 ADD SWAP1 PUSH2 0x27F SWAP2 SWAP1 PUSH2 0x697 JUMP JUMPDEST POP POP POP SWAP2 POP POP PUSH5 0x2540BE400 DUP2 PUSH2 0x296 SWAP2 SWAP1 PUSH2 0x573 JUMP JUMPDEST SWAP2 POP POP SWAP1 JUMP JUMPDEST PUSH0 SLOAD PUSH2 0x2A7 CALLVALUE PUSH2 0x1A2 JUMP JUMPDEST LT ISZERO PUSH2 0x2E8 JUMPI PUSH1 0x40 MLOAD PUSH32 0x8C379A000000000000000000000000000000000000000000000000000000000 DUP2 MSTORE PUSH1 0x4 ADD PUSH2 0x2DF SWAP1 PUSH2 0x768 JUMP JUMPDEST PUSH1 0x40 MLOAD DUP1 SWAP2 SUB SWAP1 REVERT JUMPDEST PUSH1 0x2 CALLER SWAP1 DUP1 PUSH1 0x1 DUP2 SLOAD ADD DUP1 DUP3 SSTORE DUP1 SWAP2 POP POP PUSH1 0x1 SWAP1 SUB SWAP1 PUSH0 MSTORE PUSH1 0x20 PUSH0 KECCAK256 ADD PUSH0 SWAP1 SWAP2 SWAP1 SWAP2 SWAP1 SWAP2 PUSH2 0x100 EXP DUP2 SLOAD DUP2 PUSH20 0xFFFFFFFFFFFFFFFFFFFFFFFFFFFFFFFFFFFFFFFF MUL NOT AND SWAP1 DUP4 PUSH20 0xFFFFFFFFFFFFFFFFFFFFFFFFFFFFFFFFFFFFFFFF AND MUL OR SWAP1 SSTORE POP CALLVALUE PUSH1 0x3 PUSH0 CALLER PUSH20 0xFFFFFFFFFFFFFFFFFFFFFFFFFFFFFFFFFFFFFFFF AND PUSH20 0xFFFFFFFFFFFFFFFFFFFFFFFFFFFFFFFFFFFFFFFF AND DUP2 MSTORE PUSH1 0x20 ADD SWAP1 DUP2 MSTORE PUSH1 0x20 ADD PUSH0 KECCAK256 SLOAD PUSH2 0x391 SWAP2 SWAP1 PUSH2 0x786 JUMP JUMPDEST PUSH1 0x3 PUSH0 CALLER PUSH20 0xFFFFFFFFFFFFFFFFFFFFFFFFFFFFFFFFFFFFFFFF AND PUSH20 0xFFFFFFFFFFFFFFFFFFFFFFFFFFFFFFFFFFFFFFFF AND DUP2 MSTORE PUSH1 0x20 ADD SWAP1 DUP2 MSTORE PUSH1 0x20 ADD PUSH0 KECCAK256 DUP2 SWAP1 SSTORE POP JUMP JUMPDEST PUSH1 0x2 DUP2 DUP2 SLOAD DUP2 LT PUSH2 0x3E3 JUMPI PUSH0 DUP1 REVERT JUMPDEST SWAP1 PUSH0 MSTORE PUSH1 0x20 PUSH0 KECCAK256 ADD PUSH0 SWAP2 POP SLOAD SWAP1 PUSH2 0x100 EXP SWAP1 DIV PUSH20 0xFFFFFFFFFFFFFFFFFFFFFFFFFFFFFFFFFFFFFFFF AND DUP2 JUMP JUMPDEST PUSH0 DUP2 SWAP1 POP SWAP2 SWAP1 POP JUMP JUMPDEST PUSH2 0x421 DUP2 PUSH2 0x40F JUMP JUMPDEST DUP3 MSTORE POP POP JUMP JUMPDEST PUSH0 PUSH1 0x20 DUP3 ADD SWAP1 POP PUSH2 0x43A PUSH0 DUP4 ADD DUP5 PUSH2 0x418 JUMP JUMPDEST SWAP3 SWAP2 POP POP JUMP JUMPDEST PUSH0 DUP1 REVERT JUMPDEST PUSH2 0x44D DUP2 PUSH2 0x40F JUMP JUMPDEST DUP2 EQ PUSH2 0x457 JUMPI PUSH0 DUP1 REVERT JUMPDEST POP JUMP JUMPDEST PUSH0 DUP2 CALLDATALOAD SWAP1 POP PUSH2 0x468 DUP2 PUSH2 0x444 JUMP JUMPDEST SWAP3 SWAP2 POP POP JUMP JUMPDEST PUSH0 PUSH1 0x20 DUP3 DUP5 SUB SLT ISZERO PUSH2 0x483 JUMPI PUSH2 0x482 PUSH2 0x440 JUMP JUMPDEST JUMPDEST PUSH0 PUSH2 0x490 DUP5 DUP3 DUP6 ADD PUSH2 0x45A JUMP JUMPDEST SWAP2 POP POP SWAP3 SWAP2 POP POP JUMP JUMPDEST PUSH0 PUSH20 0xFFFFFFFFFFFFFFFFFFFFFFFFFFFFFFFFFFFFFFFF DUP3 AND SWAP1 POP SWAP2 SWAP1 POP JUMP JUMPDEST PUSH0 PUSH2 0x4C2 DUP3 PUSH2 0x499 JUMP JUMPDEST SWAP1 POP SWAP2 SWAP1 POP JUMP JUMPDEST PUSH2 0x4D2 DUP2 PUSH2 0x4B8 JUMP JUMPDEST DUP2 EQ PUSH2 0x4DC JUMPI PUSH0 DUP1 REVERT JUMPDEST POP JUMP JUMPDEST PUSH0 DUP2 CALLDATALOAD SWAP1 POP PUSH2 0x4ED DUP2 PUSH2 0x4C9 JUMP JUMPDEST SWAP3 SWAP2 POP POP JUMP JUMPDEST PUSH0 PUSH1 0x20 DUP3 DUP5 SUB SLT ISZERO PUSH2 0x508 JUMPI PUSH2 0x507 PUSH2 0x440 JUMP JUMPDEST JUMPDEST PUSH0 PUSH2 0x515 DUP5 DUP3 DUP6 ADD PUSH2 0x4DF JUMP JUMPDEST SWAP2 POP POP SWAP3 SWAP2 POP POP JUMP JUMPDEST PUSH2 0x527 DUP2 PUSH2 0x4B8 JUMP JUMPDEST DUP3 MSTORE POP POP JUMP JUMPDEST PUSH0 PUSH1 0x20 DUP3 ADD SWAP1 POP PUSH2 0x540 PUSH0 DUP4 ADD DUP5 PUSH2 0x51E JUMP JUMPDEST SWAP3 SWAP2 POP POP JUMP JUMPDEST PUSH32 0x4E487B7100000000000000000000000000000000000000000000000000000000 PUSH0 MSTORE PUSH1 0x11 PUSH1 0x4 MSTORE PUSH1 0x24 PUSH0 REVERT JUMPDEST PUSH0 PUSH2 0x57D DUP3 PUSH2 0x40F JUMP JUMPDEST SWAP2 POP PUSH2 0x588 DUP4 PUSH2 0x40F JUMP JUMPDEST SWAP3 POP DUP3 DUP3 MUL PUSH2 0x596 DUP2 PUSH2 0x40F JUMP JUMPDEST SWAP2 POP DUP3 DUP3 DIV DUP5 EQ DUP4 ISZERO OR PUSH2 0x5AD JUMPI PUSH2 0x5AC PUSH2 0x546 JUMP JUMPDEST JUMPDEST POP SWAP3 SWAP2 POP POP JUMP JUMPDEST PUSH32 0x4E487B7100000000000000000000000000000000000000000000000000000000 PUSH0 MSTORE PUSH1 0x12 PUSH1 0x4 MSTORE PUSH1 0x24 PUSH0 REVERT JUMPDEST PUSH0 PUSH2 0x5EB DUP3 PUSH2 0x40F JUMP JUMPDEST SWAP2 POP PUSH2 0x5F6 DUP4 PUSH2 0x40F JUMP JUMPDEST SWAP3 POP DUP3 PUSH2 0x606 JUMPI PUSH2 0x605 PUSH2 0x5B4 JUMP JUMPDEST JUMPDEST DUP3 DUP3 DIV SWAP1 POP SWAP3 SWAP2 POP POP JUMP JUMPDEST PUSH0 PUSH10 0xFFFFFFFFFFFFFFFFFFFF DUP3 AND SWAP1 POP SWAP2 SWAP1 POP JUMP JUMPDEST PUSH2 0x62F DUP2 PUSH2 0x611 JUMP JUMPDEST DUP2 EQ PUSH2 0x639 JUMPI PUSH0 DUP1 REVERT JUMPDEST POP JUMP JUMPDEST PUSH0 DUP2 MLOAD SWAP1 POP PUSH2 0x64A DUP2 PUSH2 0x626 JUMP JUMPDEST SWAP3 SWAP2 POP POP JUMP JUMPDEST PUSH0 DUP2 SWAP1 POP SWAP2 SWAP1 POP JUMP JUMPDEST PUSH2 0x662 DUP2 PUSH2 0x650 JUMP JUMPDEST DUP2 EQ PUSH2 0x66C JUMPI PUSH0 DUP1 REVERT JUMPDEST POP JUMP JUMPDEST PUSH0 DUP2 MLOAD SWAP1 POP PUSH2 0x67D DUP2 PUSH2 0x659 JUMP JUMPDEST SWAP3 SWAP2 POP POP JUMP JUMPDEST PUSH0 DUP2 MLOAD SWAP1 POP PUSH2 0x691 DUP2 PUSH2 0x444 JUMP JUMPDEST SWAP3 SWAP2 POP POP JUMP JUMPDEST PUSH0 DUP1 PUSH0 DUP1 PUSH0 PUSH1 0xA0 DUP7 DUP9 SUB SLT ISZERO PUSH2 0x6B0 JUMPI PUSH2 0x6AF PUSH2 0x440 JUMP JUMPDEST JUMPDEST PUSH0 PUSH2 0x6BD DUP9 DUP3 DUP10 ADD PUSH2 0x63C JUMP JUMPDEST SWAP6 POP POP PUSH1 0x20 PUSH2 0x6CE DUP9 DUP3 DUP10 ADD PUSH2 0x66F JUMP JUMPDEST SWAP5 POP POP PUSH1 0x40 PUSH2 0x6DF DUP9 DUP3 DUP10 ADD PUSH2 0x683 JUMP JUMPDEST SWAP4 POP POP PUSH1 0x60 PUSH2 0x6F0 DUP9 DUP3 DUP10 ADD PUSH2 0x683 JUMP JUMPDEST SWAP3 POP POP PUSH1 0x80 PUSH2 0x701 DUP9 DUP3 DUP10 ADD PUSH2 0x63C JUMP JUMPDEST SWAP2 POP POP SWAP3 SWAP6 POP SWAP3 SWAP6 SWAP1 SWAP4 POP JUMP JUMPDEST PUSH0 DUP3 DUP3 MSTORE PUSH1 0x20 DUP3 ADD SWAP1 POP SWAP3 SWAP2 POP POP JUMP JUMPDEST PUSH32 0x6E6F7420656E6F75676800000000000000000000000000000000000000000000 PUSH0 DUP3 ADD MSTORE POP JUMP JUMPDEST PUSH0 PUSH2 0x752 PUSH1 0xA DUP4 PUSH2 0x70E JUMP JUMPDEST SWAP2 POP PUSH2 0x75D DUP3 PUSH2 0x71E JUMP JUMPDEST PUSH1 0x20 DUP3 ADD SWAP1 POP SWAP2 SWAP1 POP JUMP JUMPDEST PUSH0 PUSH1 0x20 DUP3 ADD SWAP1 POP DUP2 DUP2 SUB PUSH0 DUP4 ADD MSTORE PUSH2 0x77F DUP2 PUSH2 0x746 JUMP JUMPDEST SWAP1 POP SWAP2 SWAP1 POP JUMP JUMPDEST PUSH0 PUSH2 0x790 DUP3 PUSH2 0x40F JUMP JUMPDEST SWAP2 POP PUSH2 0x79B DUP4 PUSH2 0x40F JUMP JUMPDEST SWAP3 POP DUP3 DUP3 ADD SWAP1 POP DUP1 DUP3 GT ISZERO PUSH2 0x7B3 JUMPI PUSH2 0x7B2 PUSH2 0x546 JUMP JUMPDEST JUMPDEST SWAP3 SWAP2 POP POP JUMP INVALID LOG2 PUSH5 0x6970667358 0x22 SLT KECCAK256 EXP 0xDA DUP16 PUSH29 0x6F8E5ACA7B24A1E17E3733FEA727B9C70C40C94981E5113F4AA4057B64 PUSH20 0x6F6C634300081A00330000000000000000000000 "
				},
				"gasEstimates": {
					"creation": {
						"codeDepositCost": "406200",
						"executionCost": "22546",
						"totalCost": "428746"
					},
					"external": {
						"addresToAmountFunded(address)": "2802",
						"fund()": "infinite",
						"funders(uint256)": "5010",
						"getConversionRate(uint256)": "infinite",
						"getPrice()": "infinite",
						"minimumUsd()": "2425",
						"withdraw()": "166"
					}
				},
				"methodIdentifiers": {
					"addresToAmountFunded(address)": "8b1c5758",
					"fund()": "b60d4288",
					"funders(uint256)": "dc0d3dff",
					"getConversionRate(uint256)": "6e5b6b28",
					"getPrice()": "98d5fdca",
					"minimumUsd()": "098de820",
					"withdraw()": "3ccfd60b"
				}
			},
			"storageLayout": {
				"storage": [
					{
						"astId": 54,
						"contract": "Cyfrin/FundMe/FundMe.sol:FundMe",
						"label": "minimumUsd",
						"offset": 0,
						"slot": "0",
						"type": "t_uint256"
					},
					{
						"astId": 57,
						"contract": "Cyfrin/FundMe/FundMe.sol:FundMe",
						"label": "dataFeed",
						"offset": 0,
						"slot": "1",
						"type": "t_contract(AggregatorV3Interface)45"
					},
					{
						"astId": 60,
						"contract": "Cyfrin/FundMe/FundMe.sol:FundMe",
						"label": "funders",
						"offset": 0,
						"slot": "2",
						"type": "t_array(t_address)dyn_storage"
					},
					{
						"astId": 64,
						"contract": "Cyfrin/FundMe/FundMe.sol:FundMe",
						"label": "addresToAmountFunded",
						"offset": 0,
						"slot": "3",
						"type": "t_mapping(t_address,t_uint256)"
					}
				],
				"types": {
					"t_address": {
						"encoding": "inplace",
						"label": "address",
						"numberOfBytes": "20"
					},
					"t_array(t_address)dyn_storage": {
						"base": "t_address",
						"encoding": "dynamic_array",
						"label": "address[]",
						"numberOfBytes": "32"
					},
					"t_contract(AggregatorV3Interface)45": {
						"encoding": "inplace",
						"label": "contract AggregatorV3Interface",
						"numberOfBytes": "20"
					},
					"t_mapping(t_address,t_uint256)": {
						"encoding": "mapping",
						"key": "t_address",
						"label": "mapping(address => uint256)",
						"numberOfBytes": "32",
						"value": "t_uint256"
					},
					"t_uint256": {
						"encoding": "inplace",
						"label": "uint256",
						"numberOfBytes": "32"
					}
				}
			},
			"userdoc": {
				"kind": "user",
				"methods": {},
				"version": 1
			}
		}
	}
}